22:20:23.581323 f0:b0:14:d7:9a:a4 (oui Unknown) > Broadcast, ethertype Unknown (0x88e1), length 60: 
	0x0000:  0000 a000 b052 205f 8f7f 0000 0000 0000  .....R._........
	0x0010:  0000 0000 0000 0000 0000 0000 0000 0000  ................
	0x0020:  0000 0000 0000 0000 0000 0000 0000       ..............
22:20:23.581325 f0:b0:14:d7:9a:a4 (oui Unknown) > Broadcast, ethertype Unknown (0x8912), length 60: 
	0x0000:  0170 a000 0000 1f84 5fa3 97a2 5553 bef1  .p......_...US..
	0x0010:  fcf9 796b 5214 13e9 e200 0000 0000 0000  ..ykR...........
	0x0020:  0000 0000 0000 0000 0000 0000 0000       ..............
22:20:25.178673 IP (tos 0x0, ttl 13, id 0, offset 0, flags [DF], proto TCP (6), length 64)
    192.168.178.24.58996 > krevetka.fritz.box.http: Flags [S], cksum 0x12de (correct), seq 353587041, win 65535, options [mss 1460,nop,wscale 6,nop,nop,TS val 370400590 ecr 0,sackOK,eol], length 0

